[
["The following are deserialized transactions which are valid."],
["They are in the form"],
["[[[prevout hash, prevout index, prevout scriptPubKey], [input 2], ...],"],
["serializedTransaction, enforceP2SH]"],
["Objects that are only a single string (like this one) are ignored"],

["The following is c99c49da4c38af669dea436d3e73780dfdb6c1ecf9958baa52960e8baee30e73"],
["It is of interest because it contains a 0-sequence as well as a signature of SIGHASH type 0 (which is not a real type)"],
[[["406b2b06bcd34d3c8733e6b79f7a394c8a431fbf4ff5ac705c93f4076bb77602", 0, "DUP HASH160 0x14 0xdc44b1164188067c3a32d4780f5996fa14a4f2d9 EQUALVERIFY CHECKSIG"]],
"01000000010276b76b07f4935c70acf54fbf1f438a4c397a9fb7e633873c4dd3bc062b6b40000000008c493046022100d23459d03ed7e9511a47d13292d3430a04627de6235b6e51a40f9cd386f2abe3022100e7d25b080f0bb8d8d5f878bba7d54ad2fda650ea8d158a33ee3cbd11768191fd004104b0e2c879e4daf7b9ab68350228c159766676a14f5815084ba166432aab46198d4cca98fa3e9981d0a90b2effc514b76279476550ba3663fdcaff94c38420e9d5000000000100093d00000000001976a9149a7b0f3b80c6baaeedce0a0842553800f832ba1f88ac00000000", true],

["A nearly-standard transaction with CHECKSIGVERIFY 1 instead of CHECKSIG"],
[[["0000000000000000000000000000000000000000000000000000000000000100", 0, "DUP HASH160 0x14 0x5b6462475454710f3c22f5fdf0b40704c92f25c3 EQUALVERIFY CHECKSIGVERIFY 1"]],
"01000000010001000000000000000000000000000000000000000000000000000000000000000000006a473044022067288ea50aa799543a536ff9306f8e1cba05b9c6b10951175b924f96732555ed022026d7b5265f38d21541519e4a1e55044d5b9e17e15cdbaf29ae3792e99e883e7a012103ba8c8b86dea131c22ab967e6dd99bdae8eff7a1f75a2c35f1f944109e3fe5e22ffffffff010000000000000000015100000000", true],

["Same as above, but with the signature duplicated in the scriptPubKey with the proper pushdata prefix"],
[[["0000000000000000000000000000000000000000000000000000000000000100", 0, "DUP HASH160 0x14 0x5b6462475454710f3c22f5fdf0b40704c92f25c3 EQUALVERIFY CHECKSIGVERIFY 1 0x47 0x3044022067288ea50aa799543a536ff9306f8e1cba05b9c6b10951175b924f96732555ed022026d7b5265f38d21541519e4a1e55044d5b9e17e15cdbaf29ae3792e99e883e7a01"]],
"01000000010001000000000000000000000000000000000000000000000000000000000000000000006a473044022067288ea50aa799543a536ff9306f8e1cba05b9c6b10951175b924f96732555ed022026d7b5265f38d21541519e4a1e55044d5b9e17e15cdbaf29ae3792e99e883e7a012103ba8c8b86dea131c22ab967e6dd99bdae8eff7a1f75a2c35f1f944109e3fe5e22ffffffff010000000000000000015100000000", true],

["The following tests for the presence of a bug in the handling of SIGHASH_SINGLE"],
["It results in signing the constant 1, instead of something generated based on the transaction,"],
["when the input doing the signing has an index greater than the maximum output index"],
[[["0000000000000000000000000000000000000000000000000000000000000100", 0, "DUP HASH160 0x14 0xe52b482f2faa8ecbf0db344f93c84ac908557f33 EQUALVERIFY CHECKSIG"], ["0000000000000000000000000000000000000000000000000000000000000200", 0, "1"]],
"01000000020002000000000000000000000000000000000000000000000000000000000000000000000151ffffffff0001000000000000000000000000000000000000000000000000000000000000000000006b483045022100c9cdd08798a28af9d1baf44a6c77bcc7e279f47dc487c8c899911bc48feaffcc0220503c5c50ae3998a733263c5c0f7061b483e2b56c4c41b456e7d2f5a78a74c077032102d5c25adb51b61339d2b05315791e21bbe80ea470a49db0135720983c905aace0ffffffff010000000000000000015100000000", true],

["An invalid P2SH Transaction"],
[[["0000000000000000000000000000000000000000000000000000000000000100", 0, "HASH160 0x14 0x7a052c840ba73af26755de42cf01cc9e0a49fef0 EQUAL"]],
"010000000100010000000000000000000000000000000000000000000000000000000000000000000009085768617420697320ffffffff010000000000000000015100000000", false],

["A valid P2SH Transaction using the standard transaction type put forth in BIP 16"],
[[["0000000000000000000000000000000000000000000000000000000000000100", 0, "HASH160 0x14 0x8febbed40483661de6958d957412f82deed8e2f7 EQUAL"]],
"01000000010001000000000000000000000000000000000000000000000000000000000000000000006e493046022100c66c9cdf4c43609586d15424c54707156e316d88b0a1534c9e6b0d4f311406310221009c0fe51dbc9c4ab7cc25d3fdbeccf6679fe6827f08edf2b4a9f16ee3eb0e438a0123210338e8034509af564c62644c07691942e0c056752008a173c89f60ab2a88ac2ebfacffffffff010000000000000000015100000000", true],

["Tests for CTransaction::CheckTransaction()"],
["MAX_MONEY output"],
[[["0000000000000000000000000000000000000000000000000000000000000100", 0, "HASH160 0x14 0x32afac281462b822adbec5094b8d4d337dd5bd6a EQUAL"]],
"01000000010001000000000000000000000000000000000000000000000000000000000000000000006e493046022100e1eadba00d9296c743cb6ecc703fd9ddc9b3cd12906176a226ae4c18d6b00796022100a71aef7d2874deff681ba6080f1b278bac7bb99c61b08a85f4311970ffe7f63f012321030c0588dc44d92bdcbf8e72093466766fdc265ead8db64517b0c542275b70fffbacffffffff010040075af0750700015100000000", true],

["MAX_MONEY output + 0 output"],
[[["0000000000000000000000000000000000000000000000000000000000000100", 0, "HASH160 0x14 0xb558cbf4930954aa6a344363a15668d7477ae716 EQUAL"]],
"01000000010001000000000000000000000000000000000000000000000000000000000000000000006d483045022027deccc14aa6668e78a8c9da3484fbcd4f9dcc9bb7d1b85146314b21b9ae4d86022100d0b43dece8cfb07348de0ca8bc5b86276fa88f7f2138381128b7c36ab2e42264012321029bb13463ddd5d2cc05da6e84e37536cb9525703cfd8f43afdb414988987a92f6acffffffff020040075af075070001510000000000000000015100000000", true],

["Coinbase of size 2"],
["Note the input is just required to make the tester happy"],
[[["0000000000000000000000000000000000000000000000000000000000000000", -1, "1"]],
"01000000010000000000000000000000000000000000000000000000000000000000000000ffffffff025151ffffffff010000000000000000015100000000", true],

["Coinbase of size 100"],
["Note the input is just required to make the tester happy"],
[[["0000000000000000000000000000000000000000000000000000000000000000", -1, "1"]],
"01000000010000000000000000000000000000000000000000000000000000000000000000ffffffff6451515151515151515151515151515151515151515151515151515151515151515151515151515151515151515151515151515151515151515151515151515151515151515151515151515151515151515151515151515151515151515151515151515151ffffffff010000000000000000015100000000", true],

["Simple transaction with first input is signed with SIGHASH_ALL, second with SIGHASH_ANYONECANPAY"],
[[["0000000000000000000000000000000000000000000000000000000000000100", 0, "0x21 0x035e7f0d4d0841bcd56c39337ed086b1a633ee770c1ffdd94ac552a95ac2ce0efc CHECKSIG"],
  ["0000000000000000000000000000000000000000000000000000000000000200", 0, "0x21 0x035e7f0d4d0841bcd56c39337ed086b1a633ee770c1ffdd94ac552a95ac2ce0efc CHECKSIG"]],
 "010000000200010000000000000000000000000000000000000000000000000000000000000000000049483045022100d180fd2eb9140aeb4210c9204d3f358766eb53842b2a9473db687fa24b12a3cc022079781799cd4f038b85135bbe49ec2b57f306b2bb17101b17f71f000fcab2b6fb01ffffffff0002000000000000000000000000000000000000000000000000000000000000000000004847304402205f7530653eea9b38699e476320ab135b74771e1c48b81a5d041e2ca84b9be7a802200ac8d1f40fb026674fe5a5edd3dea715c27baa9baca51ed45ea750ac9dc0a55e81ffffffff010100000000000000015100000000", true],

["Same as above, but we change the sequence number of the first input to check that SIGHASH_ANYONECANPAY is being followed"],
[[["0000000000000000000000000000000000000000000000000000000000000100", 0, "0x21 0x035e7f0d4d0841bcd56c39337ed086b1a633ee770c1ffdd94ac552a95ac2ce0efc CHECKSIG"],
  ["0000000000000000000000000000000000000000000000000000000000000200", 0, "0x21 0x035e7f0d4d0841bcd56c39337ed086b1a633ee770c1ffdd94ac552a95ac2ce0efc CHECKSIG"]],
 "01000000020001000000000000000000000000000000000000000000000000000000000000000000004948304502203a0f5f0e1f2bdbcd04db3061d18f3af70e07f4f467cbc1b8116f267025f5360b022100c792b6e215afc5afc721a351ec413e714305cb749aae3d7fee76621313418df101010000000002000000000000000000000000000000000000000000000000000000000000000000004847304402205f7530653eea9b38699e476320ab135b74771e1c48b81a5d041e2ca84b9be7a802200ac8d1f40fb026674fe5a5edd3dea715c27baa9baca51ed45ea750ac9dc0a55e81ffffffff010100000000000000015100000000", true]
]
